:020000040000FA
:0400000007EF00F016
:10000800708209ED00F06DEF05F00600D9CF5FF0C2
:10001800DACF60F0F2A213EF00F015EF00F018EF5E
:1000280000F0010E6F6EF292F2A01DEF00F01FEFCC
:1000380000F05DEF01F026EC06F0000E806E81B84E
:1000480028EF00F02AEF00F070EF00F0D8906C3441
:10005800D96E6D34DA6E020ED926000EDA22DE046D
:10006800D8B439EF00F03BEF00F057EF01F0D8902B
:100078006C34D96E6D34DA6E010ED926000EDA2290
:10008800DF505D6E5D50556E566AD8906C34D96EEF
:100098006D34DA6E020ED926000EDA22DF505E6E5B
:1000A800FF0E5E24576E586AFF0E582289EC04F042
:1000B8000009D8B462EF00F064EF00F057EF01F0E8
:1000C800D8906C34D96E6D34DA6E020ED926000ED3
:1000D800DA22DF0657EF01F081BA75EF00F077EF0B
:1000E80000F0BEEF00F0D8906C34D96E6D34DA6E43
:1000F800010ED926000EDA22100EDE18D8B487EFCA
:1001080000F089EF00F057EF01F0D8906C34D96E09
:100118006D34DA6E010ED926000EDA22DF505D6EDC
:10012800010E5D24556E566A000E5622D8906C3426
:10013800D96E6D34DA6E020ED926000EDA22DF503F
:100148005E6E5E50576E586A89EC04F00009D8B4A8
:10015800B0EF00F0B2EF00F057EF01F0D8906C3438
:10016800D96E6D34DA6E010ED926000EDA22DF2A36
:1001780057EF01F081BCC3EF00F0C5EF00F00CEFC2
:1001880001F0D8906C34D96E6D34DA6E020ED9262F
:10019800000EDA22040EDE18D8B4D5EF00F0D7EF3F
:1001A80000F057EF01F0D8906C34D96E6D34DA6EE8
:1001B800010ED926000EDA22DF505D6E5D50556EB5
:1001C800566AD8906C34D96E6D34DA6E020ED92620
:1001D800000EDA22DF505E6E010E5E24576E586AFA
:1001E800000E582289EC04F00009D8B4FEEF00F0A4
:1001F80000EF01F057EF01F0D8906C34D96E6D34F0
:10020800DA6E020ED926000EDA22DF2A57EF01F045
:1002180081BE11EF01F013EF01F057EF01F0D89014
:100228006C34D96E6D34DA6E010ED926000EDA22DE
:10023800DE04D8B422EF01F024EF01F057EF01F00B
:10024800D8906C34D96E6D34DA6E010ED926000E52
:10025800DA22DF505D6EFF0E5D24556E566AFF0E82
:100268005622D8906C34D96E6D34DA6E020ED926C7
:10027800000EDA22DF505E6E5E50576E586A89ECC7
:1002880004F00009D8B44BEF01F04DEF01F057EF3F
:1002980001F0D8906C34D96E6D34DA6E010ED9261F
:1002A800000EDA22DF06010E09EC06F06AEC02F015
:1002B800F29060C0DAFF5FC0D9FF70921100000EA3
:1002C800676E040E666E6C50661807E16D5067180D
:1002D800D8A471EF01F073EF01F00BEF02F067BEE5
:1002E80081EF01F0675007E1020E665CD8B07FEF3E
:1002F80001F081EF01F0C6EF01F0D8906634D96EB5
:100308006734DA6E020ED926000EDA22DF50626EEA
:10031800D8906634D96E6734DA6E010ED926000E8D
:10032800DA22DF50CFEC04F0D8906634D96E673407
:10033800DA6E010ED926000EDA220950DE18D8A48A
:10034800A8EF01F0AAEF01F0C1EF01F0D8906634F0
:10035800D96E6734DA6E020ED926000EDA220A50F8
:10036800DE18D8A4BAEF01F0BCEF01F0C1EF01F03C
:10037800020ED7EC05F05FEF02F0010ED7EC05F0A6
:100388005FEF02F0D8906634D96E6734DA6E020EE9
:10039800D926000EDA22DF50626ED8906634D96E04
:1003A8006734DA6E010ED926000EDA22DF50CFEC60
:1003B80004F0D8906634D96E6734DA6E010ED92607
:1003C800000EDA220950DE18D8A4EDEF01F0EFEFA5
:1003D80001F006EF02F0D8906634D96E6734DA6E11
:1003E800020ED926000EDA220A50DE18D8A4FFEF32
:1003F80001F001EF02F006EF02F0050ED7EC05F070
:100408005FEF02F0040ED7EC05F05FEF02F0D89032
:100418006634D96E6734DA6E020ED926000EDA22F7
:10042800DF50626ED8906634D96E6734DA6E010E8A
:10043800D926000EDA22DF50CFEC04F03DEF02F0AF
:10044800000ED7EC05F05FEF02F0000ED7EC05F0D8
:100458005FEF02F0030ED7EC05F05FEF02F0030E3A
:10046800D7EC05F05FEF02F0060ED7EC05F05FEF72
:1004780002F066C064F067C065F06550000AD8B441
:1004880048EF02F05FEF02F06450000AD8B424EF9E
:1004980002F0010AD8B429EF02F0030AD8B42EEF0B
:1004A80002F0010AD8B433EF02F0070AD8B438EFE3
:1004B80002F05FEF02F06606D8A0670667BE69EF34
:1004C80002F067EF02F067EF01F01200000E5B6EBA
:1004D800040E5A6E6C505A1807E16D505B18D8A478
:1004E80078EF02F07AEF02F012EF03F05BBE88EFCC
:1004F80002F05B5007E1020E5A5CD8B086EF02F0BA
:1005080088EF02F0CDEF02F0D8905A34D96E5B3400
:10051800DA6E020ED926000EDA22DF50566ED89017
:100528005A34D96E5B34DA6E010ED926000EDA22FF
:10053800DF5009EC05F0D8905A34D96E5B34DA6E86
:10054800010ED926000EDA220950DE18D8A4AFEF22
:1005580002F0B1EF02F0C8EF02F0D8905A34D96E29
:100568005B34DA6E020ED926000EDA220A50DE1843
:10057800D8A4C1EF02F0C3EF02F0C8EF02F0020EF8
:10058800E8EC05F066EF03F0010EE8EC05F066EF25
:1005980003F0D8905A34D96E5B34DA6E020ED9263D
:1005A800000EDA22DF50566ED8905A34D96E5B347A
:1005B800DA6E010ED926000EDA22DF5009EC05F0BA
:1005C800D8905A34D96E5B34DA6E010ED926000EF3
:1005D800DA220950DE18D8A4F4EF02F0F6EF02F0A0
:1005E8000DEF03F0D8905A34D96E5B34DA6E020EF0
:1005F800D926000EDA220A50DE18D8A406EF03F036
:1006080008EF03F00DEF03F0050EE8EC05F066EFD8
:1006180003F0040EE8EC05F066EF03F0D8905A34C6
:10062800D96E5B34DA6E020ED926000EDA22DF505C
:10063800566ED8905A34D96E5B34DA6E010ED926CC
:10064800000EDA22DF5009EC05F044EF03F0000E4B
:10065800E8EC05F066EF03F0000EE8EC05F066EF55
:1006680003F0030EE8EC05F066EF03F0030EE8EC88
:1006780005F066EF03F0060EE8EC05F066EF03F010
:100688005AC058F05BC059F05950000AD8B44FEF1F
:1006980003F066EF03F05850000AD8B42BEF03F0CC
:1006A800010AD8B430EF03F0030AD8B435EF03F0E9
:1006B800010AD8B43AEF03F0070AD8B43FEF03F0C1
:1006C80066EF03F05A06D8A05B065BBE70EF03F036
:1006D8006EEF03F06EEF02F012006E50D8A477EFC1
:1006E80003F079EF03F0BEEF03F0080E806E95EF8C
:1006F80003F03F0E836EBBEF03F0060E836EBBEF75
:1007080003F05B0E836EBBEF03F04F0E836EBBEFFF
:1007180003F0660E836EBBEF03F06D0E836EBBEFC6
:1007280003F0000E616E000E626E6250000AD8B4CB
:10073800A0EF03F0BBEF03F06150000AD8B47DEFDF
:1007480003F0010AD8B481EF03F0030AD8B485EFA7
:1007580003F0010AD8B489EF03F0070AD8B48DEF83
:1007680003F0010AD8B491EF03F0BBEF03F06E2A4F
:1007780010EF04F06E04D8A4C4EF03F0C6EF03F042
:10078800CCEF03F0100E806E400E836EBBEF03F0CB
:10079800200E806EE8EF03F03F0E836E0EEF04F03C
:1007A800060E836E0EEF04F05B0E836E0EEF04F000
:1007B8004F0E836E0EEF04F0660E836E0EEF04F09C
:1007C8006D0E836E0EEF04F0000E616E000E626E09
:1007D8006250000AD8B4F3EF03F00EEF04F0615052
:1007E800000AD8B4D0EF03F0010AD8B4D4EF03F06C
:1007F800030AD8B4D8EF03F0010AD8B4DCEF03F049
:10080800070AD8B4E0EF03F0010AD8B4E4EF03F024
:100818000EEF04F0000E6E6E1200C5EC05F0ACECA5
:1008280005F04D0E626E000E636E000E90EC05F042
:100838003D0E626E000E636E010E90EC05F02D0EFB
:10084800626E000E636E020E90EC05F0450E626E4D
:10085800000E636E030E90EC05F0350E626E000E0E
:10086800636E040E90EC05F0250E626E000E636E4A
:10087800050E90EC05F01D0E626E000E636E060EFE
:1008880090EC05F0150E626E000E636E070E90EC8C
:1008980005F020EEC6F0090EDE6AE806FDE2938058
:1008A800F288F292F28EF28C8198819A819C819ED4
:1008B8009388938A938C938E000E926EF290F286B0
:1008C800F180F19E19EC06F063EC01F0F2A46FEFF1
:1008D80004F071EF04F076EF04F071EC03F0F29499
:1008E80019EC06F06F04D8A47CEF04F07EEF04F056
:1008F8006AEF04F0010EF9EC05F063EC01F0000E6C
:100908006F6E6AEF04F007EF00F0000E5C6E000EE9
:100918005B6ED8905B34D96E5C34DA6E010ED926E2
:10092800000EDA22DF50596E5A6A5550591807E1FD
:1009380056505A18D8A4A3EF04F0A5EF04F0C0EF5E
:1009480004F0D8905B34D96E5C34DA6E020ED92686
:10095800000EDA22DF50596E5A6A5750591807E1CB
:1009680058505A18D8A4BBEF04F0BDEF04F0C0EFFC
:1009780004F0010ECEEF04F05B4A5C2A5C5009E1FA
:10098800040E5B5CD8A0CBEF04F0CDEF04F08DEF44
:1009980004F0000E1200636E6204D8A4D6EF04F0CF
:1009A800D8EF04F0DFEF04F063040F0B800FF9ECCD
:1009B80005F004EF05F0020E6218D8A4E6EF04F083
:1009C800E8EF04F0EFEF04F063040F0BC00FF9EC4D
:1009D80005F004EF05F0030E6218D8A4F6EF04F052
:1009E800F8EF04F0FFEF04F063040F0B900FF9EC3D
:1009F80005F004EF05F063040F0BD00FF9EC05F0D8
:100A080063C014F062C013F01200576E5604D8A4E5
:100A180010EF05F012EF05F019EF05F057040F0B72
:100A2800800F09EC06F03EEF05F0020E5618D8A428
:100A380020EF05F022EF05F029EF05F057040F0B22
:100A4800C00F09EC06F03EEF05F0030E5618D8A4C7
:100A580030EF05F032EF05F039EF05F057040F0BD2
:100A6800900F09EC06F03EEF05F057040F0BD00F7E
:100A780009EC06F057C014F056C013F01200030238
:100A880003030E020E03090200000A1F1F0E0400D2
:100A980001010E1111110E0000000E1F1F1F0E0084
:100AA80000001F150A040E1F0A1F1F150A0404045C
:100AB8000A1F11150A040E1F0A1F11150A0404043F
:100AC8000A1F11150A040E1F0A0A11150A04040444
:100AD8000A0A860EF66E0A0EF76E000EF86E00EE23
:100AE80001F010EE54F00900F5CFEEFFE550E150AB
:100AF800FAE100EE80F0460EEE6AE806FDE100EE4F
:100B080068F0080EEE6AE806FDE170907092000E3B
:100B1800F86E000111EF04F0646E6450080DF35094
:100B2800400FF9EC05F0000E656E65506224D96E31
:100B3800000E6320DA6EDF50D7EC05F0652A070E49
:100B48006564A9EF05F0ABEF05F099EF05F0120029
:100B580096929694000E956E84928494380EF9ECD1
:100B680005F0080EF9EC05F00C0EF9EC05F0060E90
:100B7800F9EC05F0010EF9EC05F0800EF9EC05F042
:100B88001200C186C194C192C180C198C19A928055
:100B980092829294C094C082C090C09AC088C09635
:100BA800C08EC2801200616E8492848461C083FF0B
:100BB8008482C80E00D0E82EFDD78492C80E00D0DB
:100BC800E82EFDD784941200556E8492848455C013
:100BD80083FF8482C80E00D0E82EFDD78492C80E09
:100BE80000D0E82EFDD784941200616E849284941C
:100BF80061C083FF8482C80E00D0E82EFDD784929E
:100C0800C80E00D0E82EFDD71200556E8492849449
:100C180055C083FF8482C80E00D0E82EFDD7849289
:100C2800C80E00D0E82EFDD71200F294F29AD58CA7
:100C3800D59AD586F80ED516000ED76E000ED66E4C
:100C4800D58E1200F294F29AD58CD59AD586F80EE4
:0E0C5800D516000ED76E000ED66ED58E120089
:020000040020DA
:08000000FFFFFFFFFFFFFFFF00
:020000040030CA
:0E000000FF081F1EFF8381FF0FC00FE00F409F
:00000001FF
