:020000040000FA
:0400000007EF00F016
:100008006B8273ED01F02DEF03F0000E676E000EAA
:10001800666E6650681807E167506918D8A417EF2C
:1000280000F019EF00F05CEF00F0675007E1020EF6
:10003800665CD8B022EF00F024EF00F040EF00F04B
:10004800D8906634D96E6734DA6E020ED926000E5F
:10005800DA22DF50626ED8906634D96E6734DA6E71
:10006800010ED926000EDA22DF508FEC02F0010EC5
:1000780069EC03F0B0EF00F0D8906634D96E6734BD
:10008800DA6E020ED926000EDA22DF50626ED890A0
:100098006634D96E6734DA6E010ED926000EDA227C
:1000A800DF508FEC02F0040E69EC03F0B0EF00F0C3
:1000B800D8906634D96E6734DA6E020ED926000EEF
:1000C800DA22DF50626ED8906634D96E6734DA6E01
:1000D800010ED926000EDA22DF508FEC02F08EEFE7
:1000E80000F0000E69EC03F0B0EF00F0000E69ECD0
:1000F80003F0B0EF00F0030E69EC03F0B0EF00F08E
:10010800030E69EC03F0B0EF00F0060E69EC03F0A3
:10011800B0EF00F066C064F067C065F06550000A93
:10012800D8B499EF00F0B0EF00F06450000AD8B4EA
:1001380075EF00F0010AD8B47AEF00F0030AD8B4DA
:100148007FEF00F0010AD8B484EF00F0070AD8B4B2
:1001580089EF00F0B0EF00F0664A672A675009E1BE
:10016800050E665CD8A0BBEF00F0BDEF00F00DEF08
:1001780000F01200000E5C6E000E5B6E5B5068189B
:1001880007E15C506918D8A4CCEF00F0CEEF00F07E
:1001980011EF01F05C5007E1020E5B5CD8B0D7EFBD
:1001A80000F0D9EF00F0F5EF00F0D8905B34D96E8D
:1001B8005C34DA6E020ED926000EDA22DF50576E52
:1001C800D8905B34D96E5C34DA6E010ED926000EF5
:1001D800DA22DF50C9EC02F0010E9BEC03F065EF68
:1001E80001F0D8905B34D96E5C34DA6E020ED926F1
:1001F800000EDA22DF50576ED8905B34D96E5C342B
:10020800DA6E010ED926000EDA22DF50C9EC02F0B0
:10021800040E9BEC03F065EF01F0D8905B34D96EC7
:100228005C34DA6E020ED926000EDA22DF50576EE1
:10023800D8905B34D96E5C34DA6E010ED926000E84
:10024800DA22DF50C9EC02F043EF01F0000E9BEC1C
:1002580003F065EF01F0000E9BEC03F065EF01F091
:10026800030E9BEC03F065EF01F0030E9BEC03F02B
:1002780065EF01F0060E9BEC03F065EF01F05BC043
:1002880059F05CC05AF05A50000AD8B44EEF01F049
:1002980065EF01F05950000AD8B42AEF01F0010ABD
:1002A800D8B42FEF01F0030AD8B434EF01F0010AF3
:1002B800D8B439EF01F0070AD8B43EEF01F065EF82
:1002C80001F05B4A5C2A5C5009E1050E5B5CD8A032
:1002D80070EF01F072EF01F0C2EF00F012000600BB
:1002E800D9CF5EF0DACF5FF0F2A27DEF01F07FEFB9
:1002F80001F082EF01F0010E6A6EF292F2A087EF30
:1003080001F089EF01F01FEF02F081A88EEF01F0F4
:1003180090EF01F0ADEF01F0D8906834D96E6934F0
:10032800DA6E020ED926000EDA22DE04D8B49FEF68
:1003380001F0A1EF01F019EF02F0D8906834D96EFE
:100348006934DA6E020ED926000EDA22DF0619EFBA
:1003580002F081AAB2EF01F0B4EF01F0D2EF01F0A0
:10036800D8906834D96E6934DA6E010ED926000E39
:10037800DA22100EDE18D8B4C4EF01F0C6EF01F08F
:1003880019EF02F0D8906834D96E6934DA6E010E2C
:10039800D926000EDA22DF2A19EF02F081ACD7EF56
:1003A80001F0D9EF01F0F7EF01F0D8906834D96E79
:1003B8006934DA6E020ED926000EDA22040EDE182F
:1003C800D8B4E9EF01F0EBEF01F019EF02F0D890A3
:1003D8006834D96E6934DA6E020ED926000EDA2234
:1003E800DF2A19EF02F081AEFCEF01F0FEEF01F019
:1003F80019EF02F0D8906834D96E6934DA6E010EBC
:10040800D926000EDA22DE04D8B40DEF02F00FEF81
:1004180002F019EF02F0D8906834D96E6934DA6EB8
:10042800010ED926000EDA22DF06010ECCEC03F00D
:10043800BEEC00F0F2905FC0DAFF5EC0D9FF6B92AD
:100448001100E4EC03F082EC03F04D0E626E000E36
:10045800636E000E4DEC03F03D0E626E000E636E8F
:10046800010E4DEC03F02D0E626E000E636E020E4F
:100478004DEC03F0450E626E000E636E030E4DECFC
:1004880003F0350E626E000E636E040E4DEC03F041
:10049800250E626E000E636E050E4DEC03F01D0E08
:1004A800626E000E636E060E4DEC03F0150E626E62
:1004B800000E636E070E4DEC03F020EEC6F0090E39
:1004C800DE6AE806FDE29380F288F292F28EF28C00
:1004D8008A988A9A8A9C8A9E8198819A819C819E10
:1004E8009388938A938C938EF290F28609EC00F0AD
:1004F8006A04D8A482EF02F084EF02F07CEF02F0E5
:10050800010EB4EC03F009EC00F0000E6A6E7CEF0B
:1005180002F007EF00F0636E6204D8A496EF02F0D1
:1005280098EF02F09FEF02F063040F0B800FB4EC1A
:1005380003F0C4EF02F0020E6218D8A4A6EF02F08E
:10054800A8EF02F0AFEF02F063040F0BC00FB4EC9A
:1005580003F0C4EF02F0030E6218D8A4B6EF02F05D
:10056800B8EF02F0BFEF02F063040F0B900FB4EC8A
:1005780003F0C4EF02F063040F0BD00FB4EC03F0E8
:1005880063C014F062C013F01200586E5704D8A468
:10059800D0EF02F0D2EF02F0D9EF02F058040F0BBF
:1005A800800FCCEC03F0FEEF02F0020E5718D8A42F
:1005B800E0EF02F0E2EF02F0E9EF02F058040F0B6F
:1005C800C00FCCEC03F0FEEF02F0030E5718D8A4CE
:1005D800F0EF02F0F2EF02F0F9EF02F058040F0B1F
:1005E800900FCCEC03F0FEEF02F058040F0BD00F85
:1005F800CCEC03F058C014F057C013F012000302FB
:1006080003030E020E03090200000A1F1F0E040056
:1006180001010E1111110E0000000E1F1F1F0E0008
:1006280000001F150A040E1F0A1F1F150A040404E0
:100638000A1F11150A040E1F0A1F11150A040404C3
:100648000A1F11150A040E1F0A0A11150A040404C8
:100658000A0A060EF66E060EF76E000EF86E00EE2B
:1006680001F010EE54F00900F5CFEEFFE550E1502F
:10067800FAE100EE80F0460EEE6AE806FDE16A6AED
:10068800696A686A6B906B92000EF86E000125EF3C
:1006980002F0646E6450080DF350400FB4EC03F0A0
:1006A800000E656E65506224D96E000E6320DA6E06
:1006B800DF5069EC03F0652A070E656466EF03F006
:1006C80068EF03F056EF03F01200616E84928484A1
:1006D80061C083FF84821A0E606EF80EE82EFED782
:1006E800602EFCD700D084921A0E606EF80EE82EA9
:1006F800FED7602EFCD700D0849412009692969470
:10070800000E956E84928494380EB4EC03F0080EB3
:10071800B4EC03F00C0EB4EC03F0060EB4EC03F0EA
:10072800010EB4EC03F0800EB4EC03F01200566E28
:100738008492848456C083FF84821A0E556EF80E04
:10074800E82EFED7552EFCD700D084921A0E556E8F
:10075800F80EE82EFED7552EFCD700D08494120050
:10076800616E8492849461C083FF84821A0E606EE5
:10077800F80EE82EFED7602EFCD700D084921A0E11
:10078800606EF80EE82EFED7602EFCD700D012005F
:10079800566E8492849456C083FF84821A0E556ED6
:1007A800F80EE82EFED7552EFCD700D084921A0EEC
:1007B800556EF80EE82EFED7552EFCD700D0120045
:1007C800C186C184C192C190C198C19A9280928217
:1007D8009294C094C082C090C09AC088C096C08EBF
:0407E800C2801200B9
:020000040020DA
:08000000FFFFFFFFFFFFFFFF00
:020000040030CA
:0E000000FF081F1EFF8381FF0FC00FE00F409F
:00000001FF
